:020000040000FA
:100000000C20022812206B201A206B201F206B204E
:1000100025206B2037200A288316F03086008312B3
:100020008601080083120F3086000800831200301A
:100030008600080012206520162065200800122086
:10004000652016205F205F200800831201308600A3
:100050005F205F20033086005F205F20073086002E
:100060005F205F200F3086005F205F200800831232
:10007000013086005F205F20033086005F205F2014
:10008000073086005F205F200F3086005F205F20F2
:10009000073086005F205F20033086005F205F20EE
:1000A000013086005F205F20003086005F205F20E7
:1000B0000800FA30A0000000A00B5B280800FA300E
:1000C000A1005920A10B612808000430A2005F2084
:1000D000A20B672808000530A4006520A40B6D283A
:0200E000080016
:0400E20000340034B2
:02400E00103F61
:00000001FF
